:100000000C942A000C943F000C943F000C943F0089
:100010000C943F000C943F000C943F000C943F0064
:100020000C943F000C943F000C943F000C943F0054
:100030000C943F000C943F000C943F000C943F0044
:100040000C943F000C943F000C943F000C943F0034
:100050000C943F0011241FBECFE5D4E0DEBFCDBF1E
:1000600010E0A0E6B0E0EEEBF2E002C005900D92E9
:10007000AE38B107D9F70E94EC000C945D010C94E6
:100080000000DB9A95E89A95F1F700009BB39F700A
:100090009BBB9BB38295807F892B8BBBDB9885E8CC
:1000A0008A95F1F700000895CF93C82F61110AC017
:1000B000DA988C2F82958F700E9441008C2FCF91FF
:1000C0000C944100DA9AF5CF8FEF8ABB1BBA8FE20E
:1000D00095E70197F1F700C0000083E00E9441001E
:1000E0008FE39FE10197F1F700C0000083E00E94D9
:1000F000410087EC90E00197F1F700C0000083E039
:100100000E9441008FEC97E00197F1F700C00000DA
:1001100082E00E9441008FEC97E00197F1F700C068
:10012000000060E088E20E9454008FEC97E00197A5
:10013000F1F700C0000060E08CE00E9454008FECFA
:1001400097E00197F1F700C0000060E086E00E94B0
:1001500054008FEC97E00197F1F700C0000008957C
:1001600061E00E9454008FE19EE40197F1F700C026
:10017000000008956295660F660F607C860F60E050
:1001800080680C945400CF93DF93EC018991811126
:1001900003C0DF91CF9108950E94B000F7CF0F9375
:1001A0001F93CF93DF938B0128E0829FC00111241E
:1001B00060E080640E945400E801005F1F4F888166
:1001C000229661E00E945400C017D107C1F7DF9169
:1001D000CF911F910F910895CF93DF93CDB7DEB7E5
:1001E000AD970FB6F894DEBF0FBECDBF0E9464007E
:1001F00070E060E080E00E94BA008DE0E0E8F0E0AE
:10020000DE01119601900D928A95E1F7CE010196DB
:100210000E94C30088E0E0E6F0E0DE0196960190DF
:100220000D928A95E1F788E0E8E6F0E0DE015E965F
:1002300001900D928A95E1F788E0E0E7F0E0DE01B9
:10024000569601900D928A95E1F788E0E8E7F0E094
:10025000DE011E9601900D928A95E1F7BE016A5D5E
:100260007F4F80E00E94CF00BE01625E7F4F81E041
:100270000E94CF00BE016A5E7F4F82E00E94CF00E5
:10028000BE01625F7F4F83E00E94CF0010E061E01B
:1002900070E0812F0E94BA0061E0812F0E9454001B
:1002A0001F5F1430A1F770E060E08FE00E94BA0099
:0E02B00061E08DEF0E945400FFCFF894FFCF65
:1002BE000F090909091F1111111915131111000048
:1002CE00111B1511111100000E111F11111100003B
:0E02DE0048656C6C6F20576F726C64210000D5
:00000001FF
