:100000000C942A000C943F000C943F000C943F0089
:100010000C943F000C943F000C943F000C943F0064
:100020000C943F000C943F000C943F000C943F0054
:100030000C943F000C943F000C943F000C943F0044
:100040000C943F000C943F000C943F000C943F0034
:100050000C943F0011241FBECFE5D4E0DEBFCDBF1E
:1000600010E0A0E6B0E0EAEAF2E002C005900D92EE
:10007000AE37B107D9F70E94ED000C9453010C94F0
:1000800000008295807FDB9A95E89A95F1F7000051
:100090009BB39F709BBB8BBB8BB384708BBB85E882
:1000A0008A95F1F700000895CF93C82F61110AC017
:1000B000DA988C2F82958F700E9441008C2FCF91FF
:1000C0000C9441008BB3876F8BBBF3CF8FEF8ABB50
:1000D0001BBA8FE295E70197F1F700C0000083E0BB
:1000E0000E9441008FE39FE10197F1F700C00000FB
:1000F00083E00E94410087EC90E00197F1F700C097
:10010000000083E00E9441008FEC97E00197F1F737
:1001100000C0000082E00E9441008FEC97E0019750
:10012000F1F700C0000060E088E20E9454008FEC0C
:1001300097E00197F1F700C0000060E08CE00E94BA
:1001400054008FEC97E00197F1F700C0000060E0E9
:1001500086E00E9454008FEC97E00197F1F700C011
:100160000000089561E00E9454008FE19EE4019731
:10017000F1F700C0000008956295660F660F607C7D
:10018000860F60E080680C945400CF93DF93EC01FD
:100190008991811103C0DF91CF9108950E94B2002F
:1001A000F7CF0F931F93CF93DF938B0128E0829FAC
:1001B000C001112460E080640E945400E801085FDF
:1001C0001F4F61E089910E945400C017D107C9F701
:1001D000DF91CF911F910F910895CF93DF93CDB70A
:1001E000DEB7A6970FB6F894DEBF0FBECDBF0E9454
:1001F000660060E080E00E94BC0086E0E8E7F0E096
:10020000DE01919601900D928A95E1F7CE018196DB
:100210000E94C50088E0E0E6F0E0DE01599601901A
:100220000D928A95E1F788E0E8E6F0E0DE0151966C
:1002300001900D928A95E1F788E0E8E6F0E0DE01B2
:10024000199601900D928A95E1F788E0E0E7F0E0D9
:10025000DE01119601900D928A95E1F7BE01675E6D
:100260007F4F80E00E94D100BE016F5E7F4F81E032
:100270000E94D100BE01675F7F4F82E00E94D100E3
:10028000BE016F5F7F4F83E00E94D10010E061E00C
:10029000812F0E94BC0061E0812F0E9454001F5FEB
:0A02A0001430A9F7FFCFF894FFCF48
:1002AA001F1C1C1C1C1C1C1F1F000E0E0E0E001FE8
:0E02BA001C1C1F1F1F1F1C1C48454C4C4F00D6
:00000001FF
