:100000000C942A000C943F000C943F000C943F0089
:100010000C943F000C943F000C943F000C943F0064
:100020000C943F000C943F000C943F000C943F0054
:100030000C943F000C943F000C943F000C943F0044
:100040000C943F000C943F000C943F000C943F0034
:100050000C943F0011241FBECFE5D4E0DEBFCDBF1E
:1000600010E0A0E6B0E0E6EAF2E002C005900D92F2
:10007000AE37B107D9F70E94EB000C9451010C94F4
:100080000000DB9A95E89A95F1F700009BB39F700A
:100090009BBB9BB38295807F892B8BBBDB9885E8CC
:1000A0008A95F1F700000895CF93C82F61110AC017
:1000B000DA988C2F82958F700E9441008C2FCF91FF
:1000C0000C944100DA9AF5CF8EEF8ABB1BBA8FE20F
:1000D00095E70197F1F700C0000083E00E9441001E
:1000E0008FE39FE10197F1F700C0000083E00E94D9
:1000F000410087EC90E00197F1F700C0000083E039
:100100000E9441008FEC97E00197F1F700C00000DA
:1001100082E00E9441008FEC97E00197F1F700C068
:10012000000060E088E20E9454008FEC97E00197A5
:10013000F1F700C0000060E08CE00E9454008FECFA
:1001400097E00197F1F700C0000060E086E00E94B0
:1001500054008FEC97E00197F1F700C0000008957C
:1001600061E00E9454008FE19EE40197F1F700C026
:10017000000008956295660F660F607C860F60E050
:1001800080680C945400CF93DF93EC018991811126
:1001900003C0DF91CF9108950E94B000F7CF0F9375
:1001A0001F93CF93DF938B0128E0829FC00111241E
:1001B00060E080640E945400E801085F1F4F61E026
:1001C00089910E945400C017D107C9F7DF91CF91E0
:1001D0001F910F910895CF93DF93CDB7DEB7A69708
:1001E0000FB6F894DEBF0FBECDBF0E94640060E082
:1001F00080E00E94BA0086E0E8E7F0E0DE01919638
:1002000001900D928A95E1F7CE0181960E94C3007C
:1002100088E0E0E6F0E0DE01599601900D928A95C3
:10022000E1F788E0E8E6F0E0DE01519601900D92FA
:100230008A95E1F788E0E8E6F0E0DE0119960190A2
:100240000D928A95E1F788E0E0E7F0E0DE01119693
:1002500001900D928A95E1F7BE01675E7F4F80E0C5
:100260000E94CF00BE016F5E7F4F81E00E94CF00F1
:10027000BE01675F7F4F82E00E94CF00BE016F5FCB
:100280007F4F83E00E94CF0010E061E0812F0E9449
:10029000BA0061E0812F0E9454001F5F1430A9F75B
:0602A000FFCFF894FFCF30
:1002A6001F1C1C1C1C1C1C1F1F001F1F1F1F001FA8
:0E02B6001C1C1F1F1F1F1C1C48454C4C4F00DA
:00000001FF
