:100000000C942A000C943F000C943F000C943F0089
:100010000C943F000C943F000C943F000C943F0064
:100020000C943F000C943F000C943F000C943F0054
:100030000C943F000C943F000C943F000C943F0044
:100040000C943F000C943F000C943F000C943F0034
:100050000C943F0011241FBECFE5D4E0DEBFCDBF1E
:1000600010E0A0E6B0E0E4E0F2E002C005900D92FE
:10007000A237B107D9F70E94CF000C9400010C946D
:100080000000DB9A95E89A95F1F700009BB39F700A
:100090009BBB9BB38295807F892B8BBBDB9885E8CC
:1000A0008A95F1F700000895CF93C82F61110AC017
:1000B000DA988C2F82958F700E9441008C2FCF91FF
:1000C0000C944100DA9AF5CF8FEF8ABB1BBA8FE20E
:1000D00095E70197F1F700C0000083E00E9441001E
:1000E0008FE39FE10197F1F700C0000083E00E94D9
:1000F000410087EC90E00197F1F700C0000083E039
:100100000E9441008FEC97E00197F1F700C00000DA
:1001100082E00E9441008FEC97E00197F1F700C068
:10012000000060E088E20E9454008FEC97E00197A5
:10013000F1F700C0000060E08CE00E9454008FECFA
:1001400097E00197F1F700C0000060E086E00E94B0
:1001500054008FEC97E00197F1F700C0000008957C
:1001600061E00E9454008FE19EE40197F1F700C026
:10017000000008956295660F660F607C860F60E050
:1001800080680C945400CF93DF93EC018991811126
:1001900003C0DF91CF9108950E94B000F7CFCF93B5
:1001A000DF93CDB7DEB762970FB6F894DEBF0FBE10
:1001B000CDBF0E94640070E060E080E00E94BA0061
:1001C0008DE0E0E6F0E0DE01119601900D928A9557
:1001D000E1F7CE0101960E94C30061E070E08AE081
:1001E0000E94BA0085E0EDE6F0E0DE011E96019087
:1001F0000D928A95E1F7CE010E960E94C300FFCFC3
:04020000F894FFCFA0
:1002040048656C6C6F20576F726C6421007465785C
:02021400740074
:00000001FF
