:100000000C942A000C943F000C943F000C943F0089
:100010000C943F000C943F000C943F000C943F0064
:100020000C943F000C943F000C943F000C943F0054
:100030000C943F000C943F000C943F000C943F0044
:100040000C943F000C943F000C943F000C943F0034
:100050000C943F0011241FBECFE5D8E0DEBFCDBF1A
:1000600010E0A0E6B0E0E8E1F2E002C005900D92F9
:10007000AA36B107D9F70E94B8000C940A010C9473
:10008000000028E030E080FF08C0D89AD99AD998BB
:10009000859521503109B9F70895D898F7CFDA98A6
:1000A00082E40E944100DA9AD098DA9828E030E0A1
:1000B00090E080E0C8998160880F991FD99AD998FB
:1000C00021503109B9F7DA9A08958AB387608ABB5B
:1000D0008BB3887F8BBBDA9888E80E944100DA9A5C
:1000E000DA9884E40E944100DA9A08951F93CF932E
:1000F000DF93CDB7DEB72A970FB6F894DEBF0FBEF9
:10010000CDBF9AE0E0E6F0E0DE01119601900D929D
:100110009A95E1F7E1E0F0E0EC0FFD1FE80FF11D2B
:1001200087FDFA95108141111068DA98862F880FA3
:10013000806C0E944100812F0E944100DA9A2A9629
:100140000FB6F894DEBF0FBECDBFDF91CF911F91E8
:100150000895CF93C82FDA98862F880F8F5F806C11
:100160000E9441008C2F0E944100DA9ACF9108959D
:100170008FEC97E00197F1F700C0000090E080E07D
:100180000E94650040E060E081E00E94760041E06E
:1001900061E082E00E94760041E062E083E00E943C
:1001A000760040E063E084E00E94760040E064E096
:1001B00085E00E94760041E065E086E00E947600DE
:1001C00041E066E087E00E94760040E067E088E07A
:1001D0000E9476009FEF20E782E09150204080400F
:1001E000E1F700C00000C0E06C2F81E00E94A90090
:1001F0006FEF6C0F80E00E94A9009FEF29E688E175
:10020000915020408040E1F700C00000CF5FC8302F
:0802100059F7E0CFF894FFCF8D
:0A0218003F065B4F666D7D077F6FA8
:00000001FF
