:100000000C942A000C9434000C9434000C943400AA
:100010000C9434000C9434000C9434000C94340090
:100020000C9434000C9434000C9434000C94340080
:100030000C9434000C9434000C9434000C94340070
:100040000C9434000C9434000C9434000C94340060
:100050000C94340011241FBECFE5D8E0DEBFCDBF25
:100060000E9492000C9412010C94000080E280B96E
:10007000089584EA86BF06B607FEFDCF089584E999
:1000800086BF0895880F816083B984E886BF06B66D
:1000900007FEFDCF089583B984E886BF06B607FE44
:1000A000FDCF089584EC86BF06B607FEFDCF83B171
:1000B000089584E886BF06B607FEFDCF83B1089594
:1000C0001F93CF93DF93182F0E9439008CE30E9477
:1000D000420080E00E944B0081E20E944B0080E0E1
:1000E0000E944B008FE70E944B0082E20E944B006F
:1000F00080E00E944B0087E00E944B000E943F007E
:10010000C0E0D4E00E94390080E40E944B00812FBF
:100110000E944B000E943F002197A1F7DF91CF91F1
:100120001F9108952FEF89E698E12150804090407B
:10013000E1F700C000000E9436002FEF80E792E058
:10014000215080409040E1F700C000000E9439003B
:100150008CE30E9442008EEA0E944B0080E20E94E3
:100160004B0080E00E944B0085ED0E944B0080E830
:100170000E944B0088EA0E944B0087E20E944B00DD
:1001800083ED0E944B0080E00E944B0080E40E94BF
:100190004B0081EA0E944B0088EC0E944B008AEDE4
:1001A0000E944B0082E00E944B0081E80E944B00BD
:1001B0008FE70E944B0089ED0E944B0081EF0E9467
:1001C0004B008BED0E944B0080E40E944B0084EAC0
:1001D0000E944B0086EA0E944B008FEA0E944B006F
:1001E0000E943F002FEF80E792E021508040904036
:1001F000E1F700C000008FEF0E9460002FEF89E65A
:1002000098E1215080409040E1F700C0000080E07C
:100210000E9460002FEF89E698E1215080409040D5
:08022000E1F7E7CFF894FFCFEE
:00000001FF
