:100000000C942A000C9434000C9434000C943400AA
:100010000C9434000C9434000C9434000C94340090
:100020000C9434000C9434000C9434000C94340080
:100030000C9434000C9434000C9434000C94340070
:100040000C9434000C9434000C9434000C94340060
:100050000C94340011241FBECFE5D8E0DEBFCDBF25
:100060000E9491000C941A010C94000080E280B967
:10007000089584EA86BF06B607FEFDCF089584E999
:1000800086BF0895880F83B984E886BF06B607FE49
:10009000FDCF089583B984E886BF06B607FEFDCF7D
:1000A000089584EC86BF06B607FEFDCF83B10895A0
:1000B00084E886BF06B607FEFDCF83B108951F937F
:1000C000CF93DF93182F0E9439008CE30E944200E7
:1000D00080E00E944A0081E20E944A0080E00E9483
:1000E0004A008FE70E944A0082E20E944A0080E0B4
:1000F0000E944A0087E00E944A000E943F00C0E040
:10010000D4E00E94390080E40E944A00812F0E94BE
:100110004A000E943F002197A1F7DF91CF911F91E4
:1001200008952FEF80E792E0215080409040E1F762
:1001300000C000000E9436008FE19EE40197F1F7B5
:1001400000C000000E9439008CE30E9442008EEA49
:100150000E944A0080E20E944A0080E10E944A0018
:1001600080EB0E944A0088EC0E944A0080E00E94D6
:100170004A0080E10E944A0080E40E944A0081E82F
:100180000E944A008FEF0E944A0081EA0E944A00C2
:1001900086EA0E944A0088EA0E944A008FE30E9491
:1001A0004A0084EA0E944A0083ED0E944A0080E0EF
:1001B0000E944A0085ED0E944A0080EF0E944A009A
:1001C00089ED0E944A0082E20E944A008AED0E9464
:1001D0004A0082E10E944A008BED0E944A0080E2C0
:1001E0000E944A008DE80E944A0084E10E944A0071
:1001F0008FEA0E944A000E943F008FE19EE401972F
:10020000F1F700C000008FEF0E945F009FEF29E62A
:1002100088E1915020408040E1F700C0000080E07C
:100220000E945F009FEF29E688E1915020408040C6
:08023000E1F7E7CFF894FFCFDE
:00000001FF
