:100000000C942A000C9434000C9434000C943400AA
:100010000C9434000C9434000C9434000C94340090
:100020000C9434000C9434000C9434000C94340080
:100030000C9434000C9434000C9434000C94340070
:100040000C9434000C9434000C9434000C94340060
:100050000C94340011241FBECFE5D8E0DEBFCDBF25
:100060000E949B000C9417010C94000080E280B960
:10007000089584EA86BF06B607FEFDCF089584E999
:1000800086BF0895880F83B984E886BF06B607FE49
:10009000FDCF089583B984E886BF06B607FEFDCF7D
:1000A000089584EC86BF06B607FEFDCF83B10895A0
:1000B00084E886BF06B607FEFDCF83B10895CF93CF
:1000C000C82F0E94390080E00E944A008C2F0E94B5
:1000D0004A00CF910C943F00CF93C82F0E94390063
:1000E00080E40E944A008C2F0E944A00CF910C9419
:1000F0003F001F93CF93DF93182F0E9439008CE3AA
:100100000E94420081E20E945F008FE70E945F0030
:1001100082E20E945F0087E00E945F000E943F0031
:10012000C0E0D4E0812F0E946C002197D9F7DF91C5
:10013000CF911F9108952FEF80E792E021508040EA
:100140009040E1F700C000000E9436008FE19EE47D
:100150000197F1F700C000008CE30E9442008EEA94
:100160000E945F0085ED0E945F0080E80E945F00B2
:1001700088EA0E945F008FE30E945F0083ED0E9487
:100180005F0080E00E945F0080E40E945F008DE8D5
:100190000E945F0080E10E945F0080E20E945F0099
:1001A00080E00E945F0080EA0E945F0088EC0E946D
:1001B0005F008AED0E945F0082E10E945F0081E89B
:1001C0000E945F008FE90E945F0082E20E945F0050
:1001D00088ED0E945F0080E40E945F0084EA0E9434
:1001E0005F0086EA0E945F008EE20E945F008FEA55
:1001F0000E945F008FE19EE40197F1F700C00000CC
:100200008FEF0E9479009FEF29E688E1915020400E
:100210008040E1F700C0000080E00E9479009FEF7D
:1002200029E688E1915020408040E1F7E7CFF8943B
:02023000FFCFFE
:00000001FF
