:100000000C942A000C943C000C943C000C943C0092
:100010000C943C000C943C000C943C000C943C0070
:100020000C943C000C943C000C943C000C943C0060
:100030000C943C000C943C000C943C000C943C0050
:100040000C943C000C943C000C943C000C943C0040
:100050000C943C0011241FBECFE5D4E0DEBFCDBF21
:1000600020E0A0E6B0E001C01D92A436B207E1F79F
:100070000E9476000C9487000C9400008BE083BFF4
:1000800089B7826089BF8DE78CBF08951F920F9258
:100090000FB60F9211248F939F93AF93BF938091CC
:1000A000600090916100A0916200B09163000196A0
:1000B000A11DB11D8093600090936100A093620028
:1000C000B0936300BF91AF919F918F910F900FBE3E
:1000D0000F901F901895F8948091600090916100A6
:1000E000A0916200B0916300789408950E943E0050
:1000F00078940E946B00092E000CAA0BBB0B843F66
:100100009140A105B105A8F30E946B00F2CFF894CD
:02011000FFCF1F
:00000001FF
