:100000000C942A000C9482000C9482000C948200C0
:100010000C9482000C9482000C9482000C94820058
:100020000C9482000C9482000C9482000C94820048
:100030000C9482000C9482000C9482000C94820038
:100040000C9482000C9482000C9482000C94820028
:100050000C94820011241FBECFE5D4E0DEBFCDBFDB
:0C0060000E9436000C946700F894FFCF5B
:10006C000E9479000E947C0088E70E94720088EA56
:10007C000E94720083ED0E94720080E40E94720064
:10008C0080EA0E94720080EC0E9472008AED0E944D
:10009C00720081E80E94720084EA0E94720086EA73
:1000AC000E94720085ED0E9472008DE80E94720021
:1000BC008FEA0E94720087EA0E9472000E947F0001
:0200CC00FFCF64
:1000CE00EC010E9487000E948600CE010E948800EB
:0600DE00CE010E94840027
:0E00E40083B984E886BF06B607FEFDCF0895F7
:0600F20080E280B90895D0
:0600F80084EA86BF0895B2
:0600FE0084E986BF0895AD
:040104000C94000057
:040108000E9434001D
:02010C00089554
:02010E00089552
:02011000089550
:00000001FF
