:100000000C942A000C943F000C943F000C943F0089
:100010000C943F000C943F000C943F000C943F0064
:100020000C943F000C943F000C943F000C943F0054
:100030000C943F000C943F000C943F000C943F0044
:100040000C943F000C943F000C943F000C943F0034
:100050000C943F0011241FBECFE5D8E0DEBFCDBF1A
:1000600010E0A0E6B0E0EEEBF2E002C005900D92E9
:10007000A636B107D9F70E9441010C945D010C949A
:10008000000080E280B9089584EA86BF06B607FEC4
:10009000FDCF089584E986BF0895880F816083B9F4
:1000A00084E886BF06B607FEFDCF089583B984E8CD
:1000B00086BF06B607FEFDCF089584EC86BF06B660
:1000C00007FEFDCF83B1089584E886BF06B607FE1C
:1000D000FDCF83B10895CF9320E1829FC001112409
:1000E000C82F6111C1608C2F84600E94560085E882
:1000F0008A95F1F700008C2F0E94560025E82A957A
:10010000F1F70000CF910895CF93DF93C82FD62F3A
:1001100082958F700E946B006D2F8C2F8F70DF91F6
:10012000CF910C946B000E94440087E20E944D0026
:100130008FE295E70197F1F700C0000060E083E0EF
:100140000E946B008FE39FE10197F1F700C0000070
:1001500060E083E00E946B0087EC90E00197F1F78C
:1001600000C0000060E083E00E946B008FEC97E02D
:100170000197F1F700C0000060E082E00E946B0090
:100180008FEC97E00197F1F700C0000060E088E293
:100190000E9484008FEC97E00197F1F700C0000007
:1001A00060E08CE00E9484008FEC97E00197F1F70B
:1001B00000C0000060E086E00E9484008FEC97E0C1
:1001C0000197F1F700C000000C944A0061E00E9422
:1001D00084008FE19EE40197F1F700C000000895CC
:1001E000CF93DF93D82FC62F0E94440087E20E944E
:1001F0004D008C2F8295880F880F807C8D0F60E0DA
:1002000080680E948400DF91CF910C944A000F9384
:100210001F93CF93DF938C010E94440087E20E94DA
:100220004D00E8018991811106C0DF91CF911F91A6
:100230000F910C944A000E94E600F4CF0F931F9395
:10024000CF93DF93C82F8B010E94440087E20E9466
:100250004D0028E0C29FC001112460E080640E942C
:100260008400E801085F1F4F61E089910E948400CB
:10027000C017D107C9F7DF91CF911F910F910C944F
:100280004A000E9441000E9493008FE99FE001977D
:10029000F1F700C0000060E080E00E94F00080E61E
:1002A00090E00E9407019FEF29E688E191502040ED
:0E02B0008040E1F700C00000E4CFF894FFCFDB
:0602BE0048454C4C4F00C6
:00000001FF
