:100000000C942A000C9447000C9447000C94470071
:100010000C9447000C9447000C9447000C94470044
:100020000C9447000C9447000C9447000C94470034
:100030000C9447000C94CB000C9447000C944700A0
:100040000C9447000C9447000C9447000C94470014
:100050000C94470011241FBECFE5D8E0DEBFCDBF12
:1000600010E0A0E6B0E0EEE3F8E002C005900D92EB
:10007000A43AB107D9F720E0A4EAB0E001C01D928C
:10008000A63CB207E1F70E9418010C941D040C94E1
:1000900000008C9A949885E38A95F1F70000949A71
:1000A00080E690E00C9405018BE690E00E9405014B
:1000B0008C988499FECF849BFECF8499FECF81E7F4
:1000C00090E00C940501CF9388E090E0C0E0849B21
:1000D000FECF2AE62A95F1F700C0CC0F8499C160C3
:1000E0000197A9F78DE790E00E9405018C2FCF9131
:1000F0000895EF92FF920F931F93CF93DF93182FE2
:10010000D92F0E9449000E9454000E946300082FCA
:100110000E946300C82F0E946300F82E0E946300B3
:10012000E82E0E946300C00FCF0DCE0D8C131BC0B4
:100130001F92FF921F920F9388E890E09F938F93F6
:10014000DF931F930E9445018DB79EB708960FB6A7
:10015000F8949EBF0FBE8DBFDF91CF911F910F917D
:10016000FF90EF9008956EE870E0812F9D2FDF9152
:10017000CF911F910F91FF90EF900C943E0190BD95
:1001800089B988E98AB9599A86E880BD08955D9B46
:10019000FECF8CB908951F920F920FB60F921124C3
:1001A0008F93EF93FF93CF93DF931F92CDB7DEB77B
:1001B00019828CB1898389818D3021F08091A400CE
:1001C0008F31B0F0E091A400F0E0EA55FF4F1082CB
:1001D0001092A40081E08093A5000F90DF91CF9151
:1001E000FF91EF918F910F900FBE0F901F90189578
:1001F000E091A400F0E08981EA55FF4F808380916F
:10020000A4008F5F8093A400E8CFCF93DF93EC012D
:100210008991811103C0DF91CF9108950E94C70099
:10022000F7CF86EA90E00E9405011092A50008959C
:10023000CF93DF93CDB7DEB760970FB6F894DEBFEC
:100240000FBECDBF87E690E00E94BF0082E990E03C
:100250000E9405012FEF8DE399E4215080409040EA
:10026000E1F700C00000CE0101960E947900CE01A6
:1002700001960E9405018CE990E0EACFFB01DC01C8
:1002800001900D920020E1F70895AEE0B0E0EBE4BC
:10029000F1E00C94F4030D891E8986E08C831A83A7
:1002A00009838FEF9FE79E838D83AE01475E5F4F8B
:1002B0006F89788DCE0101960E9468012F81388563
:1002C000020F131FF80110822E96E4E00C94100424
:1002D000ABE0B0E0EEE6F1E00C94E6037C013B011C
:1002E0008A01FC0117821682838181FFC8C1CE0179
:1002F00001965C01F7019381F30193FD859193FFD2
:1003000081913F01882309F453C1853239F493FD6B
:10031000859193FF81913F01853229F4B70190E0E7
:100320000E945803E7CF912C212C312CFFE1F315CB
:1003300038F08B3211F190F4803209F1833229F1D7
:1003400037FC3CC020ED280F2A3050F536FE20C087
:100350008AE0989E200D1124922E06C08D3291F0D5
:10036000803371F7689430F8F30193FD859193FF22
:1003700081913F018111DACF21C0689431F86894EE
:1003800032F8F2CF689433F8EFCF689434F8ECCFBA
:10039000EAE02E9E200D1124222E689435F8E4CF39
:1003A0008E3229F436FC04C1689436F8DDCF8C36E1
:1003B00019F4689437F8D8CF8836B1F2982F9F7D1A
:1003C00095549330E0F08336A1F18337C1F1833542
:1003D00009F063C02801F2E04F0E511CF801C08003
:1003E000D180692D70E036FC02C06FEF7FEFC6014F
:1003F0000E9442034C01689437F882010AC00C5FE6
:100400001F4FFFE3F98388248394912C6501E894BE
:1004100037F833FE2DC0522C8114910471F555200C
:1004200009F468CFB70180E290E00E9458035A9423
:10043000F6CFF801808189830E5F1F4FE4CF28013A
:10044000F2E04F0E511CF801C080D180692D70E0A0
:1004500036FC02C06FEF7FEFC6010E944D034C01D6
:100460008201D5CFB70180E290E00E9458032A9420
:100470002814190409F0B0F7CECFF60137FC8591A6
:1004800037FE81916F01B70190E00E94580351102F
:100490005A94F1E08F1A9108BFCF843619F089364B
:1004A00009F077C0F80137FE6BC0608171818281ED
:1004B00093810C5F1F4FF32DFF763F2E97FF09C0EE
:1004C00090958095709561957F4F8F4F9F4F689461
:1004D00037F82AE030E0A5010E948803C82ECA1828
:1004E0008C2C432C36FE0CC0E89440F8C91440F420
:1004F00034FE05C032FC03C0F32DFE7E4F2E892C46
:1005000044FE95C0FE01EC0DF11D8081803309F0A1
:1005100087C0242D297E422E842D8870582E43FCBE
:1005200095C040FE8FC09C2C821418F42C0C922C89
:10053000981844FE91C0B70180E390E00E945803F0
:1005400042FE09C088E790E041FE02C088E590E0E5
:10055000B7010E945803C91408F48AC0CA94D12C68
:100560009FEFC91AD90ACA0CDB1CF60182916F01F0
:10057000B70190E00E945803AC14BD04B1F74FCF0F
:1005800060817181072E000C880B990B0E5F1F4F45
:1005900092CFD32CE894D4F82AE030E0853739F1B3
:1005A000232D297FD22E8F3601F148F48835A9F00A
:1005B000F701868197812B96E2E10C940204803743
:1005C00049F08837A9F7D4FE02C06894D2F820E138
:1005D00030E00DC06894D4F8F6CF34FE03C0822F0B
:1005E0008660D82E20E132E002C028E030E0F80139
:1005F000D7FE0FC060817181828193810C5F1F4F94
:10060000A5010E948803C82ECA183D2CE89437F82B
:1006100067CF6081718190E080E00E5F1F4FF0CF67
:1006200042FC02C0839478CF8394839475CF842D49
:10063000867809F471CFF6CFB70180E290E00E948E
:10064000580383948214C0F3512C73CF522C581842
:10065000821408F46ECFF8CF842D867809F47BCF0E
:100660008BE241FE80E247FC8DE2B70190E071CF62
:10067000B70180E390E00E9458039A946CCF8FEF0B
:100680009FEF99CFFC010590615070400110D8F7A1
:10069000809590958E0F9F1F0895FC0161507040CA
:1006A00001900110D8F7809590958E0F9F1F0895A7
:1006B0000F931F93CF93DF93182F092FEB018B819B
:1006C00081FD09C01FEF0FEF812F902FDF91CF9198
:1006D0001F910F91089582FF14C02E813F818C815C
:1006E0009D81281739073CF4E881F981CF010196F3
:1006F0009983888310838E819F8101969F838E8347
:10070000E3CFE885F985812F0995892BA1F3DACF0D
:10071000FA01AA27283051F1203181F1E8946F9332
:100720006E7F6E5F7F4F8F4F9F4FAF4FB1E03ED0D8
:10073000B4E03CD0670F781F891F9A1FA11D680F76
:10074000791F8A1F911DA11D6A0F711D811D911DA9
:10075000A11D20D009F468943F912AE0269F11241E
:100760003019305D3193DEF6CF010895462F477082
:10077000405D4193B3E00FD0C9F7F6CF462F4F70DD
:10078000405D4A3318F0495D31FD4052419302D03B
:10079000A9F7EACFB4E0A6959795879577956795E1
:1007A000BA95C9F700976105710508959B01AC01E1
:1007B0000A2E06945795479537952795BA95C9F708
:1007C000620F731F841F951FA01D08952F923F92E3
:1007D0004F925F926F927F928F929F92AF92BF9251
:1007E000CF92DF92EF92FF920F931F93CF93DF93FD
:1007F000CDB7DEB7CA1BDB0B0FB6F894DEBF0FBE5A
:10080000CDBF09942A88398848885F846E847D84A6
:100810008C849B84AA84B984C884DF80EE80FD80A8
:100820000C811B81AA81B981CE0FD11D0FB6F8941E
:0E083000DEBF0FBECDBFED010895F894FFCFDF
:10083E0072657175657374200D0A0073746172743C
:10084E0020726573706F6E7365200D0A007265639A
:10085E0065697665200D0A002564202564004552E1
:10086E005200454E41424C45200D0A00756172748E
:04087E00200D0A003F
:00000001FF
