:100000000C942A000C94FE000C94FE000C94FE004C
:100010000C94FE000C94FE000C94FE000C94FE0068
:100020000C94FE000C94FE000C94FE000C94FE0058
:100030000C94FE000C94FE000C94FE000C94FE0048
:100040000C94FE000C94FE000C94FE000C94FE0038
:100050000C94FE0011241FBECFE5D4E0DEBFCDBF5F
:0C0060000E9458000C94E600F894FFCFBA
:10006C00A1E21A2EAA1BBB1BFD010DC0AA1FBB1FB0
:10007C00EE1FFF1FA217B307E407F50720F0A21B22
:10008C00B30BE40BF50B661F771F881F991F1A948F
:10009C0069F760957095809590959B01AC01BD01B9
:0400AC00CF010895E3
:1000B00068E070E080EA9FE00E9490000E94CC001F
:1000C000CAE0D0E002C0C0E0D0E0CE010E94D9007A
:1000D000BC010E94F9002FEF89E698E12150804091
:1000E0009040E1F700C000002A96C536D1055CF7C4
:0200F000ECCF53
:1000F200052E97FB1EF400940E94F10057FD07D0D5
:100102000E94360007FC03D04EF40C94F100509587
:0E0112004095309521953F4F4F4F5F4F089518
:100120009C01629FC001639F900D729F900D1124EE
:100130009C0140E050E060E072E18AE790E00E94BC
:080140007900C901019708953F
:1001480097FB072E16F4009407D077FD09D00E947C
:10015800B80007FC05D03EF4909581959F4F08950F
:08016800709561957F4F089529
:10017000AA1BBB1B51E107C0AA1FBB1FA617B707CD
:1001800010F0A61BB70B881F991F5A95A9F78095E9
:080190009095BC01CD0108951A
:100198009C0191B3906391BB1DBC1CBC82EA8FBDCE
:0A01A8008AE18EBD37BD26BD089523
:1001B2002FEFAC01249FC001259F900D112464E60E
:0A01C20070E00E94A400CB01089534
:1001CC00EC010E9403010E940201CE010E94040175
:0601DC00CE010E940001AB
:1001E20090958095709561957F4F8F4F9F4F0895A1
:0A01F2009BBD8ABD79BD68BD08956C
:0401FC000C9400005F
:040200000E94340024
:0202040008955B
:02020600089559
:02020800089557
:00000001FF
