:100000000C942A000C94ED000C94ED000C94ED007F
:100010000C94ED000C94ED000C94ED000C94ED00AC
:100020000C94ED000C94ED000C94ED000C94ED009C
:100030000C94ED000C94ED000C94ED000C94ED008C
:100040000C94ED000C94ED000C94ED000C94ED007C
:100050000C94ED0011241FBECFE5D4E0DEBFCDBF70
:0C0060000E94AB000C94D500F894FFCF78
:10006C00A1E21A2EAA1BBB1BFD010DC0AA1FBB1FB0
:10007C00EE1FFF1FA217B307E407F50720F0A21B22
:10008C00B30BE40BF50B661F771F881F991F1A948F
:10009C0069F760957095809590959B01AC01BD01B9
:0400AC00CF010895E3
:1000B000052E97FB1EF400940E94E00057FD07D028
:1000C0000E94360007FC03D04EF40C94E0005095DB
:0E00D0004095309521953F4F4F4F5F4F08955B
:1000DE009C01629FC001639F900D729F900D112431
:1000EE009C0140E050E060E072E18AE790E00E94FF
:0800FE005800C90101970895A3
:1001060097FB072E16F4009407D077FD09D00E94BE
:10011600970007FC05D03EF4909581959F4F089572
:08012600709561957F4F08956B
:10012E00AA1BBB1B51E107C0AA1FBB1FA617B7070F
:10013E0010F0A61BB70B881F991F5A95A9F780952B
:08014E009095BC01CD0108955C
:1001560068E070E088EB9BE00E946F000E94BB00A5
:1001660082E390E00E94C800BC010E94E800FFCF35
:100176009C0191B3906391BB1DBC1CBC82EA8FBDF0
:0A0186008AE18EBD37BD26BD089545
:100190002FEFAC01249FC001259F900D112464E630
:0A01A00070E00E948300CB01089577
:1001AA00EC010E94F2000E94F100CE010E94F300CD
:0601BA00CE010E94EF00DF
:1001C00090958095709561957F4F8F4F9F4F0895C3
:0A01D0009BBD8ABD79BD68BD08958E
:0401DA000C94000081
:0401DE000E94340047
:0201E20008957E
:0201E40008957C
:0201E60008957A
:00000001FF
