:100000000C942D000C94BE000C94BE000C94BE0009
:100010000C94BE000C94BE000C94BE000C94BE0068
:100020000C94BE000C94BE000C94BE000C94BE0058
:100030000C94BE000C9457000C94BE000C94BE00AF
:100040000C94BE000C94BE000C94BE000C94BE0038
:100050000C94BE0000600064800011241FBECFE538
:10006000D8E0DEBFCDBFE4E5F0E040E017C0B591D9
:10007000A59135912591059107FD0CC0959185912C
:10008000EF01F92FE82F05900D92A217B307D9F7CA
:10009000FE0104C01D92A217B307E1F7E935F4078A
:0E00A00031F70E9471000C94AC00F894FFCF71
:1000AE001F920F920FB60F9211248F939F938CB1C4
:1000BE0090E0909363008093620081E090E09093D3
:1000CE006100809360009F918F910F900FBE0F90F3
:0400DE001F901895C2
:1000E20081B38C6081BB789487E690E00E949D008A
:1000F20085E590E00E948A00809160009091610005
:100102000197D1F70E94B70010926100109260002F
:02011200F3CF29
:1001140092B3947092BB92B3986092BB5D9BFECFF6
:100124008CB98BB180648BB982B3887082BB82B383
:06013400846082BB089507
:10013A0090BD89B98AB188698AB98BB182608BB955
:0E014A0080B58E6880BD82B3846082BB08954C
:10015800EC010E94C3000E94C200CE010E94C400AC
:06016800CE010E94C00060
:0E016E0080916200909163000E948A000895C3
:04017C000C940000DF
:040180000E94550084
:020184000895DC
:020186000895DA
:020188000895D8
:00000001FF
