:100000000C942A000C943C000C943C000C943C0092
:100010000C943C000C943C000C943C000C943C0070
:100020000C943C000C943C000C943C000C943C0060
:100030000C943C000C943C000C943C000C943C0050
:100040000C943C000C943C000C943C000C943C0040
:100050000C943C0011241FBECFE5D4E0DEBFCDBF21
:1000600020E0A0E6B0E001C01D92A336B207E1F7A0
:100070000E947D010C9499010C94000080E280B9EB
:10008000089584EA86BF06B607FEFDCF089584E989
:1000900086BF089583B984E886BF06B607FEFDCF04
:1000A00008956AE00E948D01292F30E1839FC001ED
:1000B0001124822B0895982F92959F708F702AE0BB
:1000C000929F800D1124089584EC86BF06B607FE2A
:1000D000FDCF83B1089584E886BF06B607FEFDCF45
:1000E00083B10895CF936AE00E948D01C92F805D8E
:1000F0000E945E0180E38C0FCF910C945E01CF9340
:10010000DF93C62FD22F80E280B90E94410080ED9C
:100110000E944A0080E00E944A0080E00E944A005B
:100120008D2F0E9451000E944A008C2F0E94510086
:100130000E944A0084E986BFDF91CF9108950F9312
:100140001F93CF93DF93D82F8B0180E280B90E9459
:10015000410080ED0E944A0080E00E944A00C4E90C
:10016000C6BF0E94410081ED0E944A000E946400C7
:10017000809362000E946400809361000E946B0083
:1001800080936000C6BF809162000E945B008093F4
:100190006200809161000E945B0080936100809109
:1001A00060000E945B0080936000B8018D2F0E9468
:1001B0006801809160000E9472008AE30E945E01E3
:1001C000809161000E9472008AE30E945E0180912A
:1001D0006200DF91CF911F910F910C947200DB9A16
:1001E00095E89A95F1F700009BB39F709BBB9BB37A
:1001F0008295807F892B8BBBDB9885E88A95F1F708
:1002000000000895CF93C82F61110AC0DA988C2F8F
:1002100082958F700E94EF008C2FCF910C94EF008D
:10022000DA9AF5CF8FEF8ABB1BBA8FE295E7019779
:10023000F1F700C0000083E00E94EF008FE39FE130
:100240000197F1F700C0000083E00E94EF0087EC07
:1002500090E00197F1F700C0000083E00E94EF00FA
:100260008FEC97E00197F1F700C0000082E00E9458
:10027000EF008FEC97E00197F1F700C0000060E01D
:1002800088E20E9402018FEC97E00197F1F700C02D
:10029000000060E08CE00E9402018FEC97E0019783
:1002A000F1F700C0000060E086E00E9402018FECE0
:1002B00097E00197F1F700C00000089561E00E9407
:1002C00002018FE19EE40197F1F700C0000008955C
:1002D0006295660F660F607C860F60E080680C9404
:1002E0000201CF93DF93EC018991811103C0DF916B
:1002F000CF9108950E945E01F7CF80E280B90E94FD
:10030000120170E060E080E00E94680170E060E04F
:1003100090E080E00E949F00F9CF991B79E004C033
:10032000991F961708F0961B881F7A95C9F7809534
:060330000895F894FFCFD0
:00000001FF
