:100000000C942A000C943C000C943C000C943C0092
:100010000C943C000C943C000C943C000C943C0070
:100020000C943C000C943C000C943C000C943C0060
:100030000C943C000C943C000C943C000C943C0050
:100040000C943C000C943C000C943C000C943C0040
:100050000C943C0011241FBECFE5D4E0DEBFCDBF21
:1000600020E0A0E6B0E001C01D92A336B207E1F7A0
:100070000E94A1010C94CF010C9400006AE00E9440
:10008000C301292F30E1839FC0011124822B0895E1
:10009000982F92959F708F702AE0929F800D112467
:1000A0000895CF936AE00E94C301C92F61E0805D8B
:1000B0000E940B0161E080E38C0FCF910C940B0147
:1000C000CF93DF93C62FD22F0E94CE000E94D10083
:1000D00080ED0E94E30080E00E94E30080E00E9447
:1000E000E3008D2F0E943E000E94E3008C2F0E94AF
:1000F0003E000E94E300DF91CF910C94D700CF9394
:10010000DF93C82FD62F0E94CE000E94D10080ED31
:100110000E94E30080E00E94E3000E94D7000E945A
:10012000D10088E60E94DA000E94EA008093620013
:100130000E94EA00809361000E94F10080936000B9
:100140000E94D700809162000E9448008093620064
:10015000809161000E94480080936100809160005E
:100160000E944800809360006D2F8C2F0E947101C7
:10017000809160000E94510061E08AE30E940B01BF
:10018000809161000E94510061E08AE30E940B01AE
:1001900080916200DF91CF910C94510080E280B990
:1001A000089584EA86BF06B607FEFDCF089584E968
:1001B00086BF0895880F816083B984E886BF06B63C
:1001C00007FEFDCF089583B984E886BF06B607FE13
:1001D000FDCF089584EC86BF06B607FEFDCF83B140
:1001E000089584E886BF06B607FEFDCF83B1089563
:1001F000DB9A95E89A95F1F700009BB39F709BBB43
:100200009BB38295807F892B8BBBDB9885E88A9591
:10021000F1F700000895CF93C82F611102C0DA985A
:1002200001C0DA9A8C2F82958F700E94F8008C2F73
:10023000CF910C94F8008EEF8ABB1BBA8FE295E742
:100240000197F1F700C0000083E00E94F8008FE3FF
:100250009FE10197F1F700C0000083E00E94F800E1
:1002600087EC90E00197F1F700C0000083E00E9466
:10027000F8008FEC97E00197F1F700C0000082E0F2
:100280000E94F8008FEC97E00197F1F700C00000A2
:1002900060E088E20E940B018FEC97E00197F1F794
:1002A00000C0000060E08CE00E940B018FEC97E042
:1002B0000197F1F700C0000060E086E00E940B01AA
:1002C0008FEC97E00197F1F700C00000089561E01E
:1002D0000E940B018FE19EE40197F1F700C000003E
:1002E000089590E4699F800D112460E080680C946B
:1002F0000B01CF93DF93EC018991882319F00E94C1
:100300006701FACFDF91CF9108950F931F93CF9399
:10031000DF938B0128E0829FC001112460E080649C
:100320000E940B01E801085F1F4F61E089910E9464
:100330000B01C017D107C9F7DF91CF911F910F9122
:1003400008950E94CE000E941B0160E080E00E94A0
:10035000710122E030E040E050E066E170E080E0D2
:1003600090E00E94600060E070E080E090E00E9419
:100370007F002FE78AE196E0215080409040E1F72E
:1003800000C00000F0CF991B79E004C0991F9617B8
:1003900008F0961B881F7A95C9F780950895F89400
:0203A000FFCF8D
:00000001FF
