:100000000C942D000C9484000C94AD000C94AD0065
:100010000C94AD000C94AD000C94AD000C94AD00AC
:100020000C94AD000C94AD000C94AD000C94AD009C
:100030000C94AD000C94AD000C94AD000C94AD008C
:100040000C94AD000C94AD000C94AD000C94AD007C
:100050000C94AD0000600064800011241FBECFE549
:10006000D4E0DEBFCDBFE4E5F0E040E017C0B591DD
:10007000A59135912591059107FD0CC0959185912C
:10008000EF01F92FE82F05900D92A217B307D9F7CA
:10009000FE0104C01D92A217B307E1F7E935F4078A
:0E00A00031F70E9457000C94A200F894FFCF95
:1000AE0085B7816085BF8BB780648BBF78948FEFE7
:1000BE0087BB8091600090916100A0916200B09129
:1000CE0063000197A105B105A1F788B3806888BBCD
:1000DE002FEF83ED90E3215080409040E1F700C078
:1000EE00000088B38F7788BB109260001092610079
:0A00FE001092620010926300DCCF44
:100108001F920F920FB60F9211248F939F93AF9364
:10011800BF9381E090E0A0E0B0E08093600090930E
:100128006100A0936200B0936300BF91AF919F916B
:0C0138008F910F900FBE0F901F90189534
:10014400EC010E94B2000E94B100CE010E94B300F3
:06015400CE010E94AF0085
:04015A000C94000001
:04015E000E945500A6
:020162000895FE
:020164000895FC
:020166000895FA
:00000001FF
